{
  "contractName": "Polling",
  "abi": [
    {
      "inputs": [],
      "payable": false,
      "stateMutability": "nonpayable",
      "type": "constructor"
    },
    {
      "anonymous": false,
      "inputs": [
        {
          "indexed": true,
          "internalType": "uint256",
          "name": "_chosenYear",
          "type": "uint256"
        }
      ],
      "name": "votedYear",
      "type": "event"
    },
    {
      "anonymous": false,
      "inputs": [
        {
          "indexed": true,
          "internalType": "uint256",
          "name": "_winningYear",
          "type": "uint256"
        }
      ],
      "name": "winnerAnnounced",
      "type": "event"
    },
    {
      "constant": true,
      "inputs": [],
      "name": "pollOwner",
      "outputs": [
        {
          "internalType": "address",
          "name": "",
          "type": "address"
        }
      ],
      "payable": false,
      "stateMutability": "view",
      "type": "function"
    },
    {
      "constant": true,
      "inputs": [
        {
          "internalType": "address",
          "name": "",
          "type": "address"
        }
      ],
      "name": "votersA",
      "outputs": [
        {
          "internalType": "bool",
          "name": "",
          "type": "bool"
        }
      ],
      "payable": false,
      "stateMutability": "view",
      "type": "function"
    },
    {
      "constant": true,
      "inputs": [],
      "name": "votersACount",
      "outputs": [
        {
          "internalType": "uint256",
          "name": "",
          "type": "uint256"
        }
      ],
      "payable": false,
      "stateMutability": "view",
      "type": "function"
    },
    {
      "constant": true,
      "inputs": [
        {
          "internalType": "address",
          "name": "",
          "type": "address"
        }
      ],
      "name": "votersB",
      "outputs": [
        {
          "internalType": "bool",
          "name": "",
          "type": "bool"
        }
      ],
      "payable": false,
      "stateMutability": "view",
      "type": "function"
    },
    {
      "constant": true,
      "inputs": [],
      "name": "votersBCount",
      "outputs": [
        {
          "internalType": "uint256",
          "name": "",
          "type": "uint256"
        }
      ],
      "payable": false,
      "stateMutability": "view",
      "type": "function"
    },
    {
      "constant": false,
      "inputs": [
        {
          "internalType": "uint256",
          "name": "_chosenYear",
          "type": "uint256"
        }
      ],
      "name": "vote",
      "outputs": [],
      "payable": false,
      "stateMutability": "nonpayable",
      "type": "function"
    },
    {
      "constant": false,
      "inputs": [
        {
          "internalType": "uint256",
          "name": "_yr",
          "type": "uint256"
        }
      ],
      "name": "votingEnds",
      "outputs": [],
      "payable": false,
      "stateMutability": "nonpayable",
      "type": "function"
    },
    {
      "constant": true,
      "inputs": [],
      "name": "getVoterStake",
      "outputs": [
        {
          "internalType": "uint256",
          "name": "",
          "type": "uint256"
        }
      ],
      "payable": false,
      "stateMutability": "view",
      "type": "function"
    },
    {
      "constant": true,
      "inputs": [],
      "name": "getVoterChosenOption",
      "outputs": [
        {
          "internalType": "uint256",
          "name": "",
          "type": "uint256"
        }
      ],
      "payable": false,
      "stateMutability": "view",
      "type": "function"
    },
    {
      "constant": true,
      "inputs": [],
      "name": "getWinningYear",
      "outputs": [
        {
          "internalType": "uint256",
          "name": "",
          "type": "uint256"
        }
      ],
      "payable": false,
      "stateMutability": "view",
      "type": "function"
    }
  ],
  "bytecode": "0x60806040526107e66000556107e860015534801561001c57600080fd5b5033600260006101000a81548173ffffffffffffffffffffffffffffffffffffffff021916908373ffffffffffffffffffffffffffffffffffffffff16021790555060006003819055506000600460006101000a81548160ff021916908315150217905550610a6a806100906000396000f3fe608060405234801561001057600080fd5b506004361061009e5760003560e01c8063c0238d5311610066578063c0238d53146101b3578063c4eae9751461020f578063c7eded231461022d578063e291e0391461025b578063f77cfc27146102795761009e565b80630121b93f146100a35780630719fd1c146100d1578063285ad937146100ef5780636cee92f314610139578063bcc7595014610157575b600080fd5b6100cf600480360360208110156100b957600080fd5b8101908080359060200190929190505050610297565b005b6100d961059f565b6040518082815260200191505060405180910390f35b6100f76105a5565b604051808273ffffffffffffffffffffffffffffffffffffffff1673ffffffffffffffffffffffffffffffffffffffff16815260200191505060405180910390f35b6101416105cb565b6040518082815260200191505060405180910390f35b6101996004803603602081101561016d57600080fd5b81019080803573ffffffffffffffffffffffffffffffffffffffff1690602001909291905050506105d5565b604051808215151515815260200191505060405180910390f35b6101f5600480360360208110156101c957600080fd5b81019080803573ffffffffffffffffffffffffffffffffffffffff1690602001909291905050506105f5565b604051808215151515815260200191505060405180910390f35b610217610615565b6040518082815260200191505060405180910390f35b6102596004803603602081101561024357600080fd5b810190808035906020019092919050505061061b565b005b610263610773565b6040518082815260200191505060405180910390f35b610281610839565b6040518082815260200191505060405180910390f35b60001515600560003373ffffffffffffffffffffffffffffffffffffffff1673ffffffffffffffffffffffffffffffffffffffff16815260200190815260200160002060009054906101000a900460ff161515148015610347575060001515600660003373ffffffffffffffffffffffffffffffffffffffff1673ffffffffffffffffffffffffffffffffffffffff16815260200190815260200160002060009054906101000a900460ff161515145b61035057600080fd5b600054811480610361575060015481145b61036a57600080fd5b6103726109f5565b33816000019073ffffffffffffffffffffffffffffffffffffffff16908173ffffffffffffffffffffffffffffffffffffffff1681525050818160200181815250506002816040018181525050600181606001901515908115158152505060016007829080600181540180825580915050906001820390600052602060002090600402016000909192909190915060008201518160000160006101000a81548173ffffffffffffffffffffffffffffffffffffffff021916908373ffffffffffffffffffffffffffffffffffffffff160217905550602082015181600101556040820151816002015560608201518160030160006101000a81548160ff021916908315150217905550505050506000548214156104f8576001600560003373ffffffffffffffffffffffffffffffffffffffff1673ffffffffffffffffffffffffffffffffffffffff16815260200190815260200160002060006101000a81548160ff02191690831515021790555060086000815480929190600101919050555061056e565b60015482141561056d576001600660003373ffffffffffffffffffffffffffffffffffffffff1673ffffffffffffffffffffffffffffffffffffffff16815260200190815260200160002060006101000a81548160ff0219169083151502179055506009600081548092919060010191905055505b5b817fea5ba98b18423c78f056150b712a13e1890439eb3be58bdf5aa7555dad9e598a60405160405180910390a25050565b60085481565b600260009054906101000a900473ffffffffffffffffffffffffffffffffffffffff1681565b6000600354905090565b60056020528060005260406000206000915054906101000a900460ff1681565b60066020528060005260406000206000915054906101000a900460ff1681565b60095481565b3373ffffffffffffffffffffffffffffffffffffffff16600260009054906101000a900473ffffffffffffffffffffffffffffffffffffffff1673ffffffffffffffffffffffffffffffffffffffff161461067557600080fd5b806003819055506001600460006101000a81548160ff021916908315150217905550600080905060008090506003546000541415610709576106b86001546108ff565b915060085482816106c557fe5b0490506106d460005482610934565b506000547f3750e7972725e640b5890f24286bac169dde053b433ec7cfa3452e1f9c8bf51760405160405180910390a261076e565b600354600154141561076d576107206000546108ff565b9150600954828161072d57fe5b04905061073c60015482610934565b506001547f3750e7972725e640b5890f24286bac169dde053b433ec7cfa3452e1f9c8bf51760405160405180910390a25b5b505050565b600080600780549050905060008090505b81811015610833573373ffffffffffffffffffffffffffffffffffffffff16600782815481106107b057fe5b906000526020600020906004020160000160009054906101000a900473ffffffffffffffffffffffffffffffffffffffff1673ffffffffffffffffffffffffffffffffffffffff161415610826576007818154811061080b57fe5b90600052602060002090600402016001015492505050610836565b8080600101915050610784565b50505b90565b600080600780549050905060008090505b818110156108f9573373ffffffffffffffffffffffffffffffffffffffff166007828154811061087657fe5b906000526020600020906004020160000160009054906101000a900473ffffffffffffffffffffffffffffffffffffffff1673ffffffffffffffffffffffffffffffffffffffff1614156108ec57600781815481106108d157fe5b906000526020600020906004020160020154925050506108fc565b808060010191505061084a565b50505b90565b6000805482141561091757600260085402905061092f565b60015482141561092e57600260095402905061092f565b5b919050565b600080600780549050905060008090505b818110156109ed57846007828154811061095b57fe5b90600052602060002090600402016001015414156109bb57836007828154811061098157fe5b90600052602060002090600402016002015401600782815481106109a157fe5b9060005260206000209060040201600201819055506109e0565b6000600782815481106109ca57fe5b9060005260206000209060040201600201819055505b8080600101915050610945565b505092915050565b6040518060800160405280600073ffffffffffffffffffffffffffffffffffffffff1681526020016000815260200160008152602001600015158152509056fea265627a7a7231582089dda807e8450a98f22ebf537661f0c324ea0e1cc7c3fd0d341d9af98d041fec64736f6c63430005100032",
  "source": "pragma solidity ^0.5.0;\r\n\r\ncontract Polling {\r\n \r\n uint private optionA = 2022;\r\n uint private optionB = 2024;\r\n \r\naddress public pollOwner ;\r\n\r\nuint private winningYear;\r\nbool private winningYearDeclared;\r\n \r\n //datastructure for voter\r\n struct Voter{\r\n     address voteAddress;\r\n     uint chosenOption;\r\n     uint stakeValue;\r\n     bool voteAlready;\r\n } \r\n \r\n  event winnerAnnounced(uint indexed _winningYear);\r\n  event votedYear(uint indexed _chosenYear);\r\n\r\n //hash to store all poll options.\r\n //mapping(uint => pollOption) public pollOptions;\r\n \r\n //keeping track of the voters, default bool is false\r\n mapping(address => bool) public votersA;\r\n mapping(address => bool) public votersB;\r\n \r\n Voter[] private allVoters;\r\n\r\n \r\n //in solidity there is no way to know the size of the mapping or iterate thru \r\n //suppose we have 2 candidates in the mapping and we try to lookup 99, it will return a blank candidate something like null\r\n //uint public optionsCount\r\n uint public votersACount;\r\n uint public votersBCount;\r\n \r\n //constructor will run when we deploy our contract to the blockchain\r\n   constructor() public {\r\n       pollOwner = msg.sender;\r\n       winningYear = 0;\r\n       winningYearDeclared = false;\r\n       \r\n        //addOption(2022);\r\n       // addOption(2024);\r\n    }\r\n    \r\n \r\n    function vote(uint _chosenYear) public {\r\n        \r\n\r\n      //  address payable seller_payable_addr = address(uint160(seller));\r\n      //  emit votingProcess(msg.sender);\r\n        \r\n        //check voter is not double voting\r\n        require(votersA[msg.sender] == false &&  votersB[msg.sender]==false);\r\n        \r\n        //poll option selected by user is valid\r\n        require(_chosenYear==optionA || _chosenYear==optionB);\r\n        \r\n        //suppose some of the require FAILED, then the remaining gas will be refunded to the caller\r\n        \r\n        //record the voter, which will come in the metadata when this function is called, msg.sender\r\n        \r\n         Voter memory newVoter;\r\n    newVoter.voteAddress = msg.sender;\r\n    newVoter.chosenOption    = _chosenYear;\r\n    newVoter.stakeValue    = 2;\r\n    newVoter.voteAlready    = true;\r\n    \r\n     allVoters.push(newVoter)-1;\r\n    \r\n     \r\n          \r\n        if(_chosenYear==optionA){\r\n         votersA[msg.sender] = true;\r\n         votersACount++;\r\n        }\r\n        else if(_chosenYear==optionB){\r\n         votersB[msg.sender] = true;\r\n         votersBCount++;\r\n        }\r\n        \r\n        //trigger the event\r\n        emit votedYear(_chosenYear);\r\n        \r\n    }\r\n    \r\n    \r\n\r\n    \r\n     function votingEnds(uint _yr)  public  {\r\n         \r\n       require(pollOwner == msg.sender);\r\n        \r\n        winningYear = _yr;\r\n        winningYearDeclared = true;\r\n        \r\n      uint totalWinningStake = 0;\r\n      uint distributionAmount = 0;\r\n\r\n\r\n      if(optionA == winningYear){\r\n        \r\n         totalWinningStake = getTotalStake(optionB);\r\n         distributionAmount = totalWinningStake / votersACount;\r\n         beginTransferOfWinnings(optionA,distributionAmount);\r\n          \r\n             //trigger the event\r\n        emit winnerAnnounced(optionA);\r\n        \r\n      }\r\n      else if(optionB == winningYear){\r\n          totalWinningStake = getTotalStake(optionA);\r\n           distributionAmount = totalWinningStake / votersBCount;\r\n            beginTransferOfWinnings(optionB,distributionAmount);\r\n            \r\n     //trigger the event\r\n        emit winnerAnnounced(optionB);\r\n      }\r\n      \r\n     \r\n      \r\n     }\r\n        \r\n  \r\n        \r\n        \r\n    function getTotalStake(uint _year) private returns (uint){\r\n            \r\n       if(_year==optionA){\r\n        return (votersACount * 2) ;\r\n        }\r\n        else if(_year==optionB){\r\n         return votersBCount * 2;\r\n        }\r\n            \r\n        }\r\n       \r\n       \r\nfunction beginTransferOfWinnings(uint _winningYear,uint _amount) private returns (uint) {\r\n            \r\n   \r\n             uint arrayLength = allVoters.length;\r\n            for (uint i=0; i<arrayLength; i++) {\r\n               \r\n \r\n               \r\n               if(allVoters[i].chosenOption == _winningYear){\r\n                   allVoters[i].stakeValue = allVoters[i].stakeValue + _amount;\r\n               }\r\n               else{\r\n                   allVoters[i].stakeValue = 0;\r\n               }\r\n            }\r\n         \r\n      \r\n        \r\n            \r\n        }\r\n        \r\n    \r\n     function getVoterStake() public view returns(uint){\r\n            \r\n               uint arrayLength = allVoters.length;\r\n            for (uint i=0; i<arrayLength; i++) {\r\n               if(allVoters[i].voteAddress == msg.sender){\r\n                    return  allVoters[i].stakeValue;\r\n               }\r\n            }\r\n        }\r\n        \r\n          function getVoterChosenOption() public view returns(uint){\r\n            \r\n               uint arrayLength = allVoters.length;\r\n            for (uint i=0; i<arrayLength; i++) {\r\n               if(allVoters[i].voteAddress == msg.sender){\r\n                    return  allVoters[i].chosenOption;\r\n               }\r\n            }\r\n        }\r\n        \r\n        \r\n    function getWinningYear() public view returns(uint){\r\n            \r\n             return winningYear;\r\n        }\r\n        \r\n  \r\n    \r\n    \r\n    \r\n}",
  "sourcePath": "D:/others/SMU_BlockChain/polling/contracts/Polling.sol",
  "compiler": {
    "name": "solc",
    "version": "0.5.16+commit.9c3226ce.Emscripten.clang"
  },
  "schemaVersion": "3.4.1",
  "updatedAt": "2021-06-13T06:50:59.798Z",
  "networkType": "ethereum",
  "devdoc": {
    "methods": {}
  },
  "userdoc": {
    "methods": {}
  }
}